{
  "contractName": "photoSharing",
  "abi": [
    {
      "anonymous": false,
      "inputs": [
        {
          "indexed": false,
          "internalType": "address",
          "name": "_from",
          "type": "address"
        },
        {
          "indexed": false,
          "internalType": "string",
          "name": "_imgHash",
          "type": "string"
        },
        {
          "indexed": false,
          "internalType": "string",
          "name": "_desc",
          "type": "string"
        }
      ],
      "name": "ImageUploded",
      "type": "event"
    },
    {
      "constant": true,
      "inputs": [],
      "name": "imageCount",
      "outputs": [
        {
          "internalType": "uint256",
          "name": "",
          "type": "uint256"
        }
      ],
      "payable": false,
      "stateMutability": "view",
      "type": "function"
    },
    {
      "constant": true,
      "inputs": [
        {
          "internalType": "uint256",
          "name": "",
          "type": "uint256"
        }
      ],
      "name": "images",
      "outputs": [
        {
          "internalType": "uint256",
          "name": "id",
          "type": "uint256"
        },
        {
          "internalType": "address",
          "name": "Imageowner",
          "type": "address"
        },
        {
          "internalType": "uint256",
          "name": "tip",
          "type": "uint256"
        },
        {
          "internalType": "string",
          "name": "imgHash",
          "type": "string"
        },
        {
          "internalType": "string",
          "name": "description",
          "type": "string"
        }
      ],
      "payable": false,
      "stateMutability": "view",
      "type": "function"
    },
    {
      "constant": true,
      "inputs": [],
      "name": "name",
      "outputs": [
        {
          "internalType": "string",
          "name": "",
          "type": "string"
        }
      ],
      "payable": false,
      "stateMutability": "view",
      "type": "function"
    },
    {
      "constant": false,
      "inputs": [
        {
          "internalType": "string",
          "name": "_imgHash",
          "type": "string"
        },
        {
          "internalType": "string",
          "name": "_desc",
          "type": "string"
        }
      ],
      "name": "uploadImg",
      "outputs": [],
      "payable": false,
      "stateMutability": "nonpayable",
      "type": "function"
    }
  ],
  "bytecode": "0x60806040526040518060400160405280600c81526020017f53686172652050686f746f7300000000000000000000000000000000000000008152506000908051906020019061004f929190610067565b50600060015534801561006157600080fd5b5061010c565b828054600181600116156101000203166002900490600052602060002090601f016020900481019282601f106100a857805160ff19168380011785556100d6565b828001600101855582156100d6579182015b828111156100d55782518255916020019190600101906100ba565b5b5090506100e391906100e7565b5090565b61010991905b808211156101055760008160009055506001016100ed565b5090565b90565b610a6d8061011b6000396000f3fe608060405234801561001057600080fd5b506004361061004c5760003560e01c806306fdde03146100515780635514e2ac146100d4578063848564821461022657806392053b631461037a575b600080fd5b610059610398565b6040518080602001828103825283818151815260200191508051906020019080838360005b8381101561009957808201518184015260208101905061007e565b50505050905090810190601f1680156100c65780820380516001836020036101000a031916815260200191505b509250505060405180910390f35b610224600480360360408110156100ea57600080fd5b810190808035906020019064010000000081111561010757600080fd5b82018360208201111561011957600080fd5b8035906020019184600183028401116401000000008311171561013b57600080fd5b91908080601f016020809104026020016040519081016040528093929190818152602001838380828437600081840152601f19601f8201169050808301925050505050505091929192908035906020019064010000000081111561019e57600080fd5b8201836020820111156101b057600080fd5b803590602001918460018302840111640100000000831117156101d257600080fd5b91908080601f016020809104026020016040519081016040528093929190818152602001838380828437600081840152601f19601f820116905080830192505050505050509192919290505050610436565b005b6102526004803603602081101561023c57600080fd5b8101908080359060200190929190505050610807565b604051808681526020018573ffffffffffffffffffffffffffffffffffffffff1673ffffffffffffffffffffffffffffffffffffffff1681526020018481526020018060200180602001838103835285818151815260200191508051906020019080838360005b838110156102d45780820151818401526020810190506102b9565b50505050905090810190601f1680156103015780820380516001836020036101000a031916815260200191505b50838103825284818151815260200191508051906020019080838360005b8381101561033a57808201518184015260208101905061031f565b50505050905090810190601f1680156103675780820380516001836020036101000a031916815260200191505b5097505050505050505060405180910390f35b61038261098d565b6040518082815260200191505060405180910390f35b60008054600181600116156101000203166002900480601f01602080910402602001604051908101604052809291908181526020018280546001816001161561010002031660029004801561042e5780601f106104035761010080835404028352916020019161042e565b820191906000526020600020905b81548152906001019060200180831161041157829003601f168201915b505050505081565b60008251116104ad576040517f08c379a00000000000000000000000000000000000000000000000000000000081526004018080602001828103825260168152602001807f496d61676520486173682069732072657175697265640000000000000000000081525060200191505060405180910390fd5b6000815111610524576040517f08c379a00000000000000000000000000000000000000000000000000000000081526004018080602001828103825260178152602001807f4465736372697074696f6e20697320526571756972656400000000000000000081525060200191505060405180910390fd5b600073ffffffffffffffffffffffffffffffffffffffff163373ffffffffffffffffffffffffffffffffffffffff1614156105c7576040517f08c379a00000000000000000000000000000000000000000000000000000000081526004018080602001828103825260128152602001807f53656e646572206973207265717569726564000000000000000000000000000081525060200191505060405180910390fd5b6001600081548092919060010191905055506040518060a0016040528060015481526020013373ffffffffffffffffffffffffffffffffffffffff16815260200160008152602001838152602001828152506002600060015481526020019081526020016000206000820151816000015560208201518160010160006101000a81548173ffffffffffffffffffffffffffffffffffffffff021916908373ffffffffffffffffffffffffffffffffffffffff1602179055506040820151816002015560608201518160030190805190602001906106a5929190610993565b5060808201518160040190805190602001906106c2929190610993565b509050507f48d0a62646789f36b718da71febb063cf1efecfa41b65bd46c15c66bcb3f18da338383604051808473ffffffffffffffffffffffffffffffffffffffff1673ffffffffffffffffffffffffffffffffffffffff1681526020018060200180602001838103835285818151815260200191508051906020019080838360005b83811015610760578082015181840152602081019050610745565b50505050905090810190601f16801561078d5780820380516001836020036101000a031916815260200191505b50838103825284818151815260200191508051906020019080838360005b838110156107c65780820151818401526020810190506107ab565b50505050905090810190601f1680156107f35780820380516001836020036101000a031916815260200191505b509550505050505060405180910390a15050565b60026020528060005260406000206000915090508060000154908060010160009054906101000a900473ffffffffffffffffffffffffffffffffffffffff1690806002015490806003018054600181600116156101000203166002900480601f0160208091040260200160405190810160405280929190818152602001828054600181600116156101000203166002900480156108e55780601f106108ba576101008083540402835291602001916108e5565b820191906000526020600020905b8154815290600101906020018083116108c857829003601f168201915b505050505090806004018054600181600116156101000203166002900480601f0160208091040260200160405190810160405280929190818152602001828054600181600116156101000203166002900480156109835780601f1061095857610100808354040283529160200191610983565b820191906000526020600020905b81548152906001019060200180831161096657829003601f168201915b5050505050905085565b60015481565b828054600181600116156101000203166002900490600052602060002090601f016020900481019282601f106109d457805160ff1916838001178555610a02565b82800160010185558215610a02579182015b82811115610a015782518255916020019190600101906109e6565b5b509050610a0f9190610a13565b5090565b610a3591905b80821115610a31576000816000905550600101610a19565b5090565b9056fea265627a7a72315820a5de4f8f9ce33837c219e49d12b8fefb967cdea8d0e649b1530cd75b4563572664736f6c63430005100032",
  "source": "// SPDX-License-Identifier: MIT\r\npragma solidity >=0.4.22 <0.9.0;\r\n\r\ncontract  photoSharing {\r\n     string public name = \"Share Photos\";\r\n\r\n     uint public imageCount  = 0;\r\n     //  mappings are arr like datatypes\r\n     mapping(uint => Image) public images;\r\n     //  Structs are Obj like\r\n     struct Image {\r\n          uint id;\r\n          address  Imageowner;\r\n          uint tip;\r\n          string imgHash;\r\n          string description;\r\n     }         \r\n     //  Declaring events to emit in future\r\n     event ImageUploded(\r\n          address _from,\r\n          string  _imgHash,\r\n          string  _desc\r\n     );\r\n     //  Functions\r\n     function uploadImg(string memory _imgHash,string memory _desc) public {\r\n\r\n          require(bytes(_imgHash).length > 0, \"Image Hash is required\");\r\n          require(bytes(_desc).length > 0, \"Description is Required\");\r\n          require(msg.sender != address(0x0), \"Sender is required\");\r\n\r\n          imageCount++;\r\n          // Creating new Images struct with data\r\n          images[imageCount] = Image(imageCount,msg.sender,0,_imgHash,_desc);\r\n          //  Emitting Events\r\n          emit ImageUploded(msg.sender,_imgHash,_desc);\r\n     }\r\n      \r\n}",
  "sourcePath": "C:\\Users\\arulj\\Desktop\\Insta\\contract\\contracts\\photoSharing.sol",
  "compiler": {
    "name": "solc",
    "version": "0.5.16+commit.9c3226ce.Emscripten.clang"
  },
  "schemaVersion": "3.4.3",
  "updatedAt": "2021-11-23T15:00:20.726Z",
  "devdoc": {
    "methods": {}
  },
  "userdoc": {
    "methods": {}
  }
}